:10001A0065971DA11095112309F448C01FEF10938D
:10002A008700FE01EF93FF933196FA93EA9314E166
:10003A001A9317EF21221FEB2122EAE4FBE01BD5DA
:10004A00FE01789620D514E11F9318810F91011BA8
:10005A00102FFF91EF9110832396E6E0F0E0FA93D8
:10006A00EA9311E01083EF93FF93FE013296108119
:10007A00FF91EF911A931081088101171FEF08F081
:10008A001127112309F011C0FE013396162D012FF5
:10009A001127E00FF11F1191BAD4E981FA81108179
:1000AA0013951083112309F0E7CF23960895CF9370
:1000BA00DF93188910951A9360972F92FE01EF9398
:1000CA00FF933196FA93EA931FE01A9317EF2122CE
:1000DA001FEB2122FE017496D6D41FE01F931881CC
:1000EA000F91011B102FFF91EF91108323962F90F0
:1000FA008FDFDF91CF910895CF93DF9319891F93F3
:10010A0018890F91011710E009F41FEF1A936097ED
:10011A002F92FE01EF93FF933196FA93EA931FE031
:10012A001A9317EF21221FEB2122FE017496ABD4FA
:10013A001FE01F9318810F91011B102FFF91EF9160
:10014A00108323962F9064DFDF91CF910895CF9388
:10015A00DF9319891F9318890F91011710E009F08D
:10016A001FEF1A9360972F92FE01EF93FF93319638
:10017A00FA93EA931FE01A9317EF21221FEB212229
:10018A00FE01749680D41FE01F9318810F91011B02
:10019A00102FFF91EF91108323962F9039DFDF9173
:1001AA00CF910895229710E019831FE71883E6E09C
:1001BA00F0E0FA93EA9315E0108313E11A931081A1
:1001CA00088101171FEF08F01127112309F019C040
:1001DA001C811F93EAE8F0E0EF93FF93162D012F9D
:1001EA001127FF91EF91E00FF11F11910F91100F5D
:1001FA001C83E981FA81108113951083112309F078
:10020A00DFCF239619811F9318810F91102300E8DD
:10021A00011B102F1F9318810F9110230895188125
:10022A0019301FEF08F01127112309F40BC0EAE86F
:10023A00F0E03696EF93FF9318811F5EFF91EF91DE
:10024A00119319C01881193010E011F008F01FEF4E
:10025A00112309F40BC0EAE8F0E03696EF93FF9316
:10026A001881105FFF91EF91119305C0EAE8F0E061
:10027A00369610E11193EAE8F0E07496EF93FF9353
:10028A00CF93DF938FDFDF91CF91FF91EF9111939E
:10029A00E6E0F0E0FA93EA9310E0108315E11A938E
:1002AA001081088101171FEF08F01127112309F0A7
:1002BA0015C0EAE8F0E0EF93FF93162D012F1127FE
:1002CA00FF91EF91E00FF11F1191A1D3E981FA811A
:1002DA00108113951083112309F0E3CF23961FEFA2
:1002EA001093890008952197FE01FA93EA9310E08A
:1002FA00108310E11A931081088101171FEF08F08B
:10030A001127112309F00FC0CF93DF931B811A9392
:10031A0086DFDF91CF91E981FA81108113951083ED
:10032A00112309F0E9CF239608952297EAE8F0E02D
:10033A0073961191812EE7E0F0E0FA93EA9310E0C8
:10034A0010831AE01A931081088101171FEF08F031
:10035A001127112309F02BC0EAE8F0E0EF93FF938D
:10036A00172D03E1011B102F012F1127FF91EF9188
:10037A00E00FF11FEF93FF93EAE8F0E0EF93FF93AA
:10038A00172D03E1011B102F1150012F1127FF9187
:10039A00EF91E00FF11F1191FF91EF911193E98114
:1003AA00FA81108113951083112309F0CDCF23967A
:1003BA00EAE8F0E03896182D1193089518810CE0B8
:1003CA00A8D3102F1883E6E0F0E0FA93EA9311E03D
:1003DA001083EF93FF931A81FF91EF911A93108183
:1003EA00088101171FEF08F01127112309F00DC02A
:1003FA00CF93DF939ADFDF91CF91E981FA81108160
:10040A0013951083112309F0EBCF2396CF93DF9333
:10041A006ADFDF91CF910895E6E0F0E0FA93EA937C
:10042A0010E010831BE01A931081088101171FEF57
:10043A0008F01127112309F01AC0EAE8F0E0EF9357
:10044A00FF93162D185F012F1127FF91EF91E00FEF
:10045A00F11FEF93FF931B81FF91EF911193E981B4
:10046A00FA81108113951083112309F0DECF2396A8
:10047A000895EAE8F0E010EF1193EAE8F0E0319627
:10048A0011E41193EAE8F0E032961FE71193EAE8E3
:10049A00F0E0339612E41193EAE8F0E0349612E1C0
:1004AA001193EAE8F0E0359610E41193EAE8F0E0F7
:1004BA00379610E41193CF93DF9310E41A93ACDFCD
:1004CA00DF91CF91EAE8F0E0759617EF119308955E
:1004DA00E6E0F0E0FA93EA9310E010831BE01A9347
:1004EA001081088101171FEF08F01127112309F065
:1004FA0082C0FE013396EF93FF93162D012F112729
:10050A00000F111FFF91EF91E00FF11F019111915F
:10051A00A0E81A271F3709F4003C1FEF08F011273B
:10052A00112309F411C0FE013396EF93FF93162DA0
:10053A00012F1127000F111FFF91EF91E00FF11FFB
:10054A001FEF00EC01931193FE013396EF93FF9393
:10055A00162D012F1127000F111FFF91EF91E00FA8
:10056A00F11F01911191A0E81A27103809F40F33ED
:10057A0010E011F008F01FEF112309F411C0FE0179
:10058A003396EF93FF93162D012F1127000F111F9A
:10059A00FF91EF91E00FF11F10E00FE30193119328
:1005AA00EAE8F0E0EF93FF93162D185F012F112769
:1005BA00FF91EF91E00FF11FEF93FF93FE01339646
:1005CA00EF93FF93162D012F1127000F111FFF9193
:1005DA00EF91E00FF11F01911191005C1F4F102F55
:1005EA00FF91EF911193E981FA811081139510839C
:1005FA00112309F076CF239608951881103810E058
:10060A0008F01FEF112309F410C01881912E192D3B
:10061A00103808F407C01F3911F008F003C012E0BF
:10062A00B12E02C010E0B12E20C01B2D123009F0ED
:10063A0007C018810CE06DD2102FA12EBA9415C0F4
:10064A00113009F012C012E0B12E1C2D112309F449
:10065A000BC010E0C12ECF93DF931A2D1A93AEDE92
:10066A00DF91CF91929808C000C01C2D112309F484
:10067A0001C002C01881CBD10895219710B3188305
:10068A0018811873169516951695188318811F9355
:10069A001E2D0F91011710E009F01FEF112309F425
:1006AA0004C01881E12E1FEF01C010E00895E6E0B2
:1006BA00F0E0FA93EA9311E01083EF93FF931A8123
:1006CA00FF91EF911A931081088101171FEF08F02B
:1006DA001127112309F010C0929810E00AEFB5D142
:1006EA00929A10E00AEFB1D1E981FA81108113954B
:1006FA001083112309F0E8CF239608951E2D163092
:10070A0009F009C0929810E004E69FD1929A12E08B
:10071A000CEB9BD11CC0143009F019C0929810E060
:10072A0004E693D1929A10E004E68FD1929810E0F1
:10073A0004E68BD1929A10E004E687D1929810E0F1
:10074A0004E683D1929A11E00CE27FD100C00895A9
:10075A00CF93DF9310E41A935FDEDF91CF911E2DC2
:10076A00163009F00FC01FEFC12ECF93DF93E2E5D9
:10077A00FBE0689728E130E0DE01DAD1A9DEDF91FB
:10078A00CF911AC0143009F00FC01FEFC12ECF93BA
:10079A00DF93EAE6FBE0689728E130E0DE01C8D1A2
:1007AA0097DEDF91CF9108C010E0C12ECF93DF937F
:1007BA009ADDDF91CF91929A089514E011BB1CEF54
:1007CA0012BB10E014BD1BE015BD19B7106819BFA4
:1007DA0017B1106C17B9CF93DF934FDFDF91CF9129
:1007EA0010E01093870045DE10E0C12ECF93DF930F
:1007FA0012E01A935CDFDF91CF9110E0912E10E0A6
:10080A00B12E0895DADF10E8212A78941C2D1123DD
:10081A0009F401C073DFF4D0112309F408C0CF939F
:10082A00DF93D1D01A93E9DEDF91CF91F4CFCF9342
:10083A00DF9323DFDF91CF91112309F4E7CF11E092
:10084A0004EF03D1CF93DF9318DFDF91CF911030FC
:10085A0010E009F41FEF112309F4F1CF79DFD6CFA5
:10086A000000FECFF89411E009E01EBF0DBF11276A
:10087A00E0E1F0E0A0E0B0E031960000319711F03D
:10088A001D93FCCFA0E6B0E0E0E0F4E03196000072
:10089A00319711F01D93FCCFC9E4D1E0F8941FE71A
:1008AA00212216E01093600012BF13E013BF11E07B
:1008BA0019BF18E11AB91FE119B910E010BD10E00B
:1008CA00109361001093620010936300579A10E02E
:1008DA001093740010937500109376001EE810BDF3
:1008EA001CB1222433248ECFEF93FF930F931F93CF
:1008FA001FB71F931091600002B7100F12BF1FE7B6
:10090A00212210E8212A1F911FBF1F910F91FF91E9
:10091A00EF911895EF93FF930F931F931FB71F93B0
:10092A0010917600112311F455981BC0009175009F
:10093A001127E7E7F0E0E00FF11F10811CB91091D1
:10094A0076001A951093760009F4559810912B00A9
:10095A00106410932B000395003109F400270093CB
:10096A0075001F911FBF1F910F91FF91EF9118956D
:10097A00EF93FF930F931F931FB71F931091630079
:10098A00103111F40CB118C01CB11F93112700913A
:10099A006100E4E6F0E0E00FF11F1F91108310916F
:1009AA0063001395109363000395003109F400273F
:1009BA00009361005F99E2CF1F911FBF1F910F91B2
:1009CA00FF91EF911895109163001123E1F30091C3
:1009DA0062001127E4E6F0E0E00FF11F1081F894BD
:1009EA00E0916300EA95E093630027FC7894009114
:1009FA0062000395003109F400270093620008950C
:100A0A00112700916300002309F0109508950091C1
:100A1A0076000031E1F3F89400917400E7E7F0E022
:100A2A00E00F0027F01F10830091760003950093D2
:100A3A007600009174000395003109F400270093B1
:100A4A007400559A27FC78940895A8011127411734
:100A5A00510749F00AE71CE0015010400000E1F795
:100A6A0041505040B9F708952150304018F0119183
:100A7A001D93FACF0895B591BB2321F015910CD09F
:100A8A00BA95E1F708951191112329F0B12F119127
:100A9A0003D0BA95E1F70895EF93FF9323FAAEF0E6
:100AAA001F93E981FA811881112331F41F91689407
:100ABA0021F8FF91EF9108951A9518831F911193C8
:100ACA00FA83E983FF91EF910895E881F9811F93F1
:100ADA000F932F933F93AF93BF936F937F934F934C
:100AEA005F938F939F9309959F918F915F914F91F8
:100AFA007F916F91BF91AF913F912F910F911F916C
:100B0A00FF91EF9108953F912F91012F1F912F93FC
:100B1A003F93332729E0111F2A9511F4032F0895D3
:100B2A00331F301B18F4300F8894F5CF0894F3CF95
:100B3A002150304018F015911D93FACF0895189559
:100B4A00074641494C45442000000C0004001000AF
:100B5A00F2FFFEFFF6FF02000E00F0FF1200F4FFA4
:100B6A0000001000FAFF0A00F3FF0300EDFFFDFF8B
:080B7A000D00F6FF0600F0FF7C
:1000000036C4A2C5A1C5A0C59FC59EC59DC59CC53A
:0A0010009BC56FC499C5B1C482C43A
:00000001FF
